:1000000010308A0000280000FF00030E8301A100C9
:100010000A08A0008A010408A2007708A300780853
:10002000A4007908A5007A08A600831383128B1E0A
:100030001B280B192C28220884002308F700240809
:10004000F8002508F9002608FA0020088A00210E89
:100050008300FF0E7F0E09008A110A122F2858080C
:10006000313C031D89285808323C03198928013086
:10007000D3070318D40A0319D50A0319D60A53085B
:10008000E73C031D87285408033C031D8728D50837
:10009000031D8728D608031D8728D601D501D40162
:1000A000D3010130CF070318D00A0319D10A03196D
:1000B000D20A4F083C3C031D8728D008031D87281F
:1000C000D108031D8728D208031D8728D201D1013A
:1000D000D001CF010130CB070318CC0A0319CD0A98
:1000E0000319CE0A4B083C3C031D8728CC08031D8E
:1000F0008728CD08031D8728CE08031D87280130D7
:10010000C7070318C80A0319C90A0319CA0A6430C1
:1001100081000B118A110A121B28941509308316CD
:100120009300831294160800831611141118962850
:10013000831208008C1103173F08031393008C1DD2
:100140009F2800308316111B0130F800831208002D
:10015000831611151119AA28831208000317B60176
:100160003608073C031CC42803100313AF0C2730C8
:10017000031736078400831380080319C22803136A
:10018000AF170317B60AB0284E30B900BB012F30A5
:10019000BA000130BC000313942003173908BF00D4
:1001A00003139A200317BD013C083D020318E628FB
:1001B0003D083A07840083133B1883170008BE00EC
:1001C000BF0003139A200317BD0AD4280313A820E5
:1001D00008001D308400831700080319FC2806302E
:1001E000F800F701F70BF228F80BF1287B30F70045
:1001F000F70BF828800BEF2808000317B51D052919
:1002000001300313AE00072903170313AE010317D0
:10021000351D0F2901300313AD00112903170313F6
:10022000AD010317B51C192901300313AC001B29BC
:1002300003170313AC010317351C232901300313E3
:10024000AB00252903170313AB010130A900AE2031
:10025000A901AE2008008316911591192D2983124A
:1002600013080317BF00831603139111831203179A
:10027000BE080319412983160313911644298312DA
:1002800003178316031391121116111A45298312AD
:1002900003173F08F800031308000130AB00AC005F
:1002A000AD00AE00AE20A701AE200130A800AE2008
:1002B0000130A900AE204F300317B7000130B9005C
:1002C0003430B8000130BA00031394200317370804
:1002D000BF0003139A200317BB0101303A023B020F
:1002E00003188A293B083807F8003908FA00031870
:1002F000FA0A7808BC007A08BD00BE0103132B215E
:1003000003173C08840083133D1883177808800086
:10031000BB0A6D293B083807F8003908FA000318B2
:10032000FA0A7808BC007A08BD000130BE00031349
:100330002B2103173C08840083133D18831778088A
:1003400080000313A820A901AE200130A900AE202F
:10035000A901AE200317B41DAF29031358290313B5
:1003600008004D21A701AE20A801AE2003171D0EE5
:100370009E000F309E051E08B5000313FD200317D5
:100380001D08B5000313FD2008008D208316D5013C
:100390005508073C031CD3292730550784008313D5
:1003A0008001D50AC8298312AE201E3003179D0094
:1003B0000313E920A701AE20A801AE2003300317E4
:1003C000B5000313FD20053003179D000313E9203A
:1003D00003300317B5000313FD20053003179D00FC
:1003E0000313E92003300317B5000313FD20053084
:1003F00003179D000313E92002300317B500031310
:10040000FD20013003179D000313E9202830031756
:100410009D000313B1210C3003179D000313B1217C
:100420000E3003179D000313B121013003179D0007
:100430000313B1218A110A16A928013003179D0060
:100440000313B121080003179C0803192C2A01305B
:100450000313AA002E2A03170313AA01AE200800D3
:100460008D209420D0300317BF0003139A2007304B
:100470000317BF0003139A200317BF0103139A2029
:10048000A8208A110A16B6289420D0300317BF007E
:1004900003139A200317BF0103139A2083166B08D6
:1004A000840083136C1883170008ED008312031770
:1004B000BF0003139A20013083166B078400831357
:1004C0006C1883170008ED0083120317BF00031395
:1004D0009A20023083166B07840083136C188317ED
:1004E0000008ED0083120317BF0003139A200330A6
:1004F00083166B07840083136C1883170008ED00C4
:1005000083120317BF0003139A20043083166B076E
:10051000840083136C1883170008ED0083120317FF
:10052000BF0003139A20053083166B0784008313E2
:100530006C1883170008ED0083120317BF00031324
:100540009A20063083166B07840083136C18831778
:100550000008ED0083120317BF0003139A20A820A0
:10056000080003179C011C08033C031C212B0430CA
:100570001C07F8000130F700F8080319C32A03101C
:10058000F70DF80BBF2A7708FF3C031386001030E5
:10059000F700F70BC92A00000030061801300317D6
:1005A0009E000030031386180130F7000310F70D8A
:1005B000770803179E040030031306190130F70073
:1005C000F70DF70DFC30F705770803179E04003090
:1005D000031386190130F700F70DF70DF70DF8300A
:1005E000F705770803171E040313B4000F30B40592
:1005F00034080F3C03191E2B03179D011D08033CF3
:10060000031C1D2B30301D078400831300080313C7
:100610003402031D1A2B03171D0DF700F70DFC30D4
:10062000F70577081C07363E840083130008F8009E
:10063000232B031303179D0AFE2A031303179C0A97
:10064000B32A0030F800031308008316D601D50141
:100650008312B1227808333C031D392B8316D50A47
:100660000319D60A0530831203179D000313E920EE
:10067000292B8316D608031D412B5508313C03183E
:10068000452B01308312D7008316D608031D4C2B4F
:100690005508953C0318502B02308312D70083165F
:1006A0005608003C03185F2BFF3A031D5B2B5508CF
:1006B0002B3C03185F2B03308312D7008316831261
:1006C0008A110A16CD289420D0300317BF000313D7
:1006D0009A200317BF0103139A20A8209420D13039
:1006E0000317BF0003139A2003171C08F8001D0806
:1006F000FA001C089E001D089F00BE0103132B2159
:1007000003171E08840083131F18831778088000BE
:1007100001301C07F8001D08FA000318FA0A7808CF
:100720009E007A089F00BE0103132B2103171E08A9
:10073000840083131F1883177808800002301C0779
:10074000F8001D08FA000318FA0A78089E007A08D3
:100750009F00BE0103132B2103171E08840083137F
:100760001F1883177808800003301C07F8001D0845
:10077000FA000318FA0A78089E007A089F000130F0
:10078000BE0003132B2103171E08840083131F18B8
:100790008317780880000313A8200800013003178E
:1007A0001A02F700770E9D009D0D9D0DC0309D052E
:1007B00001301B021D07803E9C000313A701AE20E1
:1007C00003171C0E9D000F309D051D08B500031377
:1007D000FD2003171C08B5000313FD204D210E302A
:1007E00003179D000313B1210800F701F801031757
:1007F000210803102218F707F70CF80CA218F707C6
:10080000F70CF80C2219F707F70CF80CA219F707E8
:10081000F70CF80C221AF707F70CF80CA21AF707D6
:10082000F70CF80C221BF707F70CF80CA21BF707C4
:10083000F70CF80C0313080003171D0EF7000F3018
:10084000F7057708A000A1000A30A2000313F523E2
:10085000780803179F001D080F391F079E001E0808
:10086000F800031308008318382C3A3084008317EB
:100870000317350839068039BF00B51F4A2CB20965
:10088000B309B409B509B20A0319B30A0319B40AC2
:100890000319B50AB91F572CB609B709B809B90920
:1008A000B60A0319B70A0319B80A0319B90AF701F6
:1008B000F801F901FA01BA01BB01BC01BD01390817
:1008C0003804370436040319952C2030BE00031079
:1008D000B20DB30DB40DB50DBA0DBB0DBC0DBD0DF4
:1008E00039083D02031D7E2C38083C02031D7E2C76
:1008F00037083B02031D7E2C36083A02031C8F2C5E
:100900003608BA023708031C370FBB023808031C2D
:10091000380FBC023908031C390FBD020314F70D50
:10092000F80DF90DFA0DBE0B672CBF1FA22CF709AD
:10093000F809F909FA09F70A0319F80A0319F90A73
:100940000319FA0A3A088000840A3B088000840AE6
:100950003C088000840A3D088000031308004D21F4
:100960000130A700AE20A801AE200317330EB4005B
:100970000F30B4053408B5000313FD200317330806
:10098000B5000313FD20080020300317C800C40180
:10099000C501C601C7013F08FA003E08F9003D083D
:1009A000F8003C08F7000310771CE42C4008C4074B
:1009B00041080318410FC50742080318420FC60734
:1009C00043080318430FC707C70CC60CC50CC40C5B
:1009D000FA0CF90CF80CF70CC80BD32C0313080015
:1009E0000317B701B601B5010130B400BB01BA016C
:1009F000B901B800BB1FFF2CB31F172D012DB31B6E
:100A0000382D3B083302031C382D031D172D3A08DF
:100A10003202031C382D031D172D39083102031C27
:100A2000382D031D172D38083002031C382DBF0147
:100A3000BE01BD010A30BC003708C3003608C20041
:100A40003508C1003408C0000313C4247A08031712
:100A5000B7007908B6007808B5007708B40001300F
:100A6000B8070318B90A0319BA0A0319BB0AFA2C02
:100A70003408F7003508F8003608F9003708FA009E
:100A80000313080003173108FA00300884008313A9
:100A90007A188317800803195E2D3108FA00300890
:100AA000B00A0319B10A840083137A188317000867
:100AB000B200B3000313AF24602D0317622D03139C
:100AC000422D03170313080061300317AE00AF0176
:100AD000AD01AC01AB01AA01A501A401A301A201D2
:100AE0001D08A1001C08A0001B089F001A089E00FA
:100AF000A11BA92DA108031D872DA008031D872D6B
:100B00009F08031D872D1E08093C0318A92D83107B
:100B10002108B5002008B4001F08B3001E08B20069
:100B2000B901B801B7010A30B600031333247A08BB
:100B30000317A1007908A00078089F0077089E009D
:100B40000130AA070318AB0A0319AC0A0319AD0A4E
:100B5000782D9D1BB82D9D08031DBD2D9C08031DE0
:100B6000BD2D9B08031DBD2D1A08093C031CBD2D7E
:100B70003030B3000313AF240317AD1B572E2D08DD
:100B8000B3002C08B2002B08B1002A08B0000313F0
:100B9000F0240317B1010408B0003110831B311495
:100BA00083101D08B5001C08B4001B08B3001A0808
:100BB000B2007A08B9007908B8007808B700770859
:100BC000B60003133324031730088400831331184D
:100BD00083177A08A9007908A8007808A700770881
:100BE000A60030302607F7002708F8000030031869
:100BF0000130F8072808F900003003180130F90720
:100C00002908FA00003003180130FA077708AE000F
:100C10000130B1002E30B00003134225013003171C
:100C2000A2070318A30A0319A40A0319A50A2D0889
:100C3000B3002C08B2002B08B1002A08B00003133F
:100C4000F0240317B1010408B0003110831B3114E4
:100C50002908BF002808BE002708BD002608BC00E0
:100C60007A08C3007908C2007808C1007708C0007C
:100C70000313C42403173008840083133118831727
:100C800077089A027808031C780F9B027908031CE6
:100C9000790F9C027A08031C7A0F9D02FF30AA0785
:100CA000031CAB07031CAC07031CAD07BD2D0313CE
:100CB000080003171A089D0019089C0003136323FA
:100CC000023003171907840083131A1883170008CA
:100CD0009C009D0003131C24831622087802031D28
:100CE000C52E0130831203171907840083131A18C5
:100CF000831700089C009D0003131C2483162508FD
:100D00007802031DC52E831203171908840083136C
:100D10001A18831700089C009D0003131C248316D7
:100D200028087802031DC52E0130831203179C008A
:100D300003132322023003179C00FA309D00031393
:100D4000E92003179C0B9D2E9C01031323220230E4
:100D500003179C00FA309D000313E92003179C0B36
:100D6000AA2E0313B1227808343C031DC32ED901E7
:100D7000B1227808343C0319B82E013003179C00C7
:100D800003132322C62E8316942E83126430031776
:100D90009D000313E920080083166B08EF000A305A
:100DA0008312031790001008F801831603136F02D3
:100DB0000318DD2E6F08F700F12EF70108308312BB
:100DC0000317910083160313EF0DF70D831203171A
:100DD000100877020318F700F80D910BE22E831626
:100DE00003137808ED006D0883120317A1000A3081
:100DF000A2000313F523780883166B02EE006D0E34
:100E0000F700F030F70577086E07EC006C08F80083
:040E10008312080041
:101000008A11B1228A157808043C031900280317B5
:101010009D015A309C008A11031363238A1583169D
:10102000EC015A30EB008A11831294208A15D030DB
:101030000317BF008A1103139A208A15043003177F
:10104000BF008A1103139A208A158A11A8208A15D5
:101050008A1194208A15D1300317BF008A11031317
:101060009A208A15043083166B07F8006C08FA0082
:101070000318FA0A7808ED007A08EE0083120317C5
:10108000BE018A1103132B218A1583166D08840073
:1010900083136E1883177808800005306B07F800FB
:1010A0006C08FA000318FA0A7808ED007A08EE00D6
:1010B00083120317BE018A1103132B218A1583168D
:1010C0006D08840083136E1883177808800006303B
:1010D0006B07F8006C08FA000318FA0A7808ED00AC
:1010E0007A08EE00013083120317BE008A11031341
:1010F0002B218A1583166D08840083136E188317BD
:10110000780880008A118312A8208A1501300317FD
:101110009A009B008A110313CE238A155C080317DB
:101120009D008A1103131C248A1578088316EB008E
:10113000831203179D019C019B01831603136B0807
:10114000831203179A008A11031364258A153A3013
:101150000317B3008A110313AF248A155B08031722
:101160009D008A1103131C248A1578088316EB004E
:10117000831203179D019C019B01831603136B08C7
:10118000831203179A008A11031364258A153A30D3
:101190000317B3008A110313AF248A155A080317E3
:1011A0009D008A1103131C248A1578088316EB000E
:1011B000831203179D019C019B01831603136B0887
:1011C000831203179A008A11031364258A150230CB
:1011D00003179A0001309B008A110313CE238A154E
:1011E0005D0803179D008A1103131C248A15023021
:1011F0007802F700F70DF70DFC30F7057708B23EDF
:101200008316EB00EC010318EC0A6C088312031739
:10121000B100831603136B0883120317B0008A1101
:10122000031342258A152F300317B3008A110313C5
:10123000AF248A155E0803179D008A1103131C242E
:101240008A1578088316EB00831203179D019C0111
:101250009B01831603136B08831203179A008A11EC
:10126000031364258A152F300317B3008A11031363
:10127000AF248A155F0803179D008A1103131C24ED
:101280008A1578088316EB00831203179D019C01D1
:101290009B01831603136B08831203179A008A11AC
:1012A000031364258A15570B562971298A11B12217
:1012B0008A157808343C031D7129680801398316A2
:1012C000EB006B08831203179C008A11031323227F
:1012D0008A15E8098A11B1228A157808343C031965
:1012E0006A29590B7B2903179A015A3099008A11F0
:1012F000031359268A1502308316EB00E13083125E
:1013000003179D008A110313E9208A158316EB0B3E
:101310007E29831208008A111D228A158316D8019E
:10132000D701D601D5018312B50108308316DD003F
:101330006D308312D800013003179A009B008A1188
:101340000313CE238A1553308316DE006530DF0089
:101350007430E0002030E1004130E2006C30E30006
:101360006130E4007230E5006D30E600E7013030B6
:1013700083120317900091003A30920030309300AE
:1013800094003A3095003030960097009801B101F2
:10139000DE30B0008A11031342258A15023003178C
:1013A0009A0001309B008A110313CE238A15013065
:1013B0000317B1001030B0008A11031342258A15BB
:1013C000023003179A0008309B008A110313CE23C2
:1013D0008A1503179D015A309C008A110313632359
:1013E0008A155C0803179D008A1103131C248A15B3
:1013F0007808831622020319042ADC01DB01C330BA
:10140000DA005030D9001F2A83125B0803179D00B1
:101410008A1103131C248A15780883162502013CBF
:10142000031C192ADC01DB010730DA00D030D900B7
:101430001F2ADC01DB011F30DA004030D9008A119D
:101440008312B1228A15F8080319032B34083502D8
:101450000319032B8A11B1228A157808D8008A1142
:10146000B1228A157808343C031D4D2A03308316B7
:10147000DD075D08083C03183F2A0230DD0002301A
:10148000831203179A00831603135D088312031750
:101490009B008A110313CE238A158A11B1228A1563
:1014A0007808313C031D912A6A3083165D07840059
:1014B00083130008E800A9305D0784008313000847
:1014C00068020319652A0318922A01305D02E800B8
:1014D0000230831203179A008316031368088312DD
:1014E00003179B008A110313CE238A156A308316D3
:1014F0005D0784008313800A6A305D0784008313CC
:101500000008E800831203179D019C019B018316CC
:1015100003136808831203179A008A1103136425C2
:101520008A1583168A118312B1228A157808313CF4
:10153000031DE62A6A3083165D07840083130008C2
:10154000E800A9305D0784008313000868020319CE
:10155000E72A031CE72A6A305D07E800E90103185F
:10156000E90A01305D02A93E840083130008EA0005
:10157000680884008313691883176A0880000130A3
:101580005D02E8000230831203179A0083160313EA
:101590006808831203179B008A110313CE238A1550
:1015A0006A3083165D07840083130008E800831205
:1015B00003179D019C019B01831603136808831286
:1015C00003179A008A11031364258A1583168A115A
:1015D0008312B1228A157808333C031D032B013096
:1015E000D9006C088316A20083126F088316A50029
:1015F0007208A8008312EC01EF01F201D7018A11F1
:101600001D228A153D2B01308316D5070318D60AF3
:101610000319D70A0319D80A5C085802031C352B92
:10162000031D222B5B085702031C352B031D222BA5
:101630005A085602031C352B031D222B590855024C
:10164000031C352B8312590B262B282B8316352B85
:1016500003179A015A3099008A11031359268A15E3
:101660008316D801D701D601D50183123408B500FD
:101670005708023C031D3D2BF1298A110A16DC2B69
:101680008A111D228A15013003179A009B008A11C6
:101690000313CE238A1553308316D5007430D60039
:1016A0006F30D7007030D8002030D9005730DA00C2
:1016B0006130DB007430DC006330DD006830DE0058
:1016C000DF018312CA01C901C801C701CE01CD01E2
:1016D000CC01CB01D201D101D001CF01D601D5017E
:1016E000D401D3013230D800043083168100643035
:1016F000831281008B168B170B170317B101D5309E
:10170000B0008A11031342258A15023003179A008C
:1017100001309B008A110313CE238A154A08031750
:101720009D000313490803179C000313480803177F
:101730009B000313470803179A008A1103136425BB
:101740008A153A300317B3008A110313AF248A15A0
:101750004E0803179D0003134D0803179C00031345
:101760004C0803179B0003134B0803179A008A11B8
:10177000031364258A153A300317B3008A11031343
:10178000AF248A15520803179D000313510803174D
:101790009C000313500803179B0003134F08031703
:1017A0009A008A11031364258A153A300317B3008F
:1017B0008A110313AF248A1556088316E300831297
:1017C00055088316E200831254088316E100831241
:1017D00053088316E00061308312031794009501CB
:1017E000930192019101900183160313EB01EA0129
:1017F000E901E8016308E7006208E6006108E50026
:101800006008E400E71B472CE708031D112CE608DD
:10181000031D112CE508031D112C6408093C031855
:10182000472C8310670883120317B5008316031330
:10183000660883120317B400831603136508831226
:101840000317B30083160313640883120317B2004F
:10185000B901B801B7010A30B6008A110313332465
:101860008A157A088316E7007908E6007808E5000B
:101870007708E40001308312031790070318910AD8
:101880000319920A0319930A83160313022CE31B0C
:10189000562CE308031D672CE208031D672CE108A2
:1018A000031D672C6008093C031C672C3030831231
:1018B0000317B3008A110313AF248A1530300317BE
:1018C000B3008A110313AF248A157E2C8316E31B01
:1018D000762CE308031D7F2CE208031D7F2CE10812
:1018E000031D7F2C6008633C031C7F2C3030831267
:1018F0000317B3008A110313AF248A1583168312CA
:101900000317931B4F2D1308B3001208B2001108E0
:10191000B1001008B0008A110313F0248A150317D0
:101920009701040896001710831B17148310831661
:101930000313630883120317B500831603136208A9
:1019400083120317B400831603136108831203176D
:10195000B30083160313600883120317B2007A08DA
:10196000B9007908B8007808B7007708B6008A117E
:10197000031333248A1503171608840083131718DA
:1019800083177A0883160313EF007908EE007808AE
:10199000ED007708EC0030306C07F7006D08F800B8
:1019A000003003180130F8076E08F9000030031802
:1019B0000130F9076F08FA00003003180130FA0708
:1019C00077088312031794000130B1001430B0007F
:1019D0008A11031342258A1501308316E80703187C
:1019E000E90A0319EA0A0319EB0A83120317130819
:1019F000B3001208B2001108B1001008B0008A113B
:101A00000313F0248A150317970104089600171092
:101A1000831B1714831603136F0883120317BF0069
:101A2000831603136E0883120317BE008316031375
:101A30006D0883120317BD00831603136C0883120D
:101A40000317BC007A08C3007908C2007808C100F7
:101A50007708C0008A110313C4248A1503171608D7
:101A60008400831317188317770883160313E00283
:101A70007808031C780FE1027908031C790FE20251
:101A80007A08031C7A0FE302FF30831203179007D2
:101A9000031C9107031C9207031C9307812C8A11D6
:101AA0000313B1228A15F8080319A82D8A11B1224F
:101AB0008A157808343C031CA82D8A11B1228A1596
:101AC0007808D8008A11B1228A15F8080319A22DC6
:101AD000340835020319A22D5808313C031D7E2D10
:101AE0008A11B1228A157808313C0319702DE90A50
:101AF00069080139031D7E2D3230D8005808333C67
:101B0000031D922DCA01C901C801C701CE01CD0133
:101B1000CC01CB01D201D101D001CF01D601D50139
:101B2000D401D3015808343C031DA22DD7018A11DA
:101B30001D228A158A11B1228A157808343C0319AE
:101B40009A2DA92D3408B5005708033C031DA92D73
:0E1B5000852B8B128B130B138A110A16E52BB3
:1020000003081F398300CA01C901C801C701CE01F5
:10201000CD01CC01CB01D201D101D001CF01D6013C
:10202000D501D401D301D701E801E90183161F14BA
:102030009F141F159F1107309C0083138312A70163
:10204000A801A901AA01AB01AC01AD01AE01AF012C
:102050000E30B0000D30B1000B30B2000730B300CD
:102060003730B6003830B7003930B8002F30B900FB
:102070003430BA003530BB003630BC002A30BD00E9
:102080003130BE003230BF003330C0002D30C100CF
:102090004E30C2003030C3003D30C4002B30C5008C
:1020A000EA01EB01EC01ED01EE01EF01F001F101BC
:1020B000F2018316A001A101A201A301A401A501BF
:1020C000A601A701A801A901AA011730AB00AC0124
:1020D000AD013B30AE00AF01B001B1004D30B200F8
:1020E0006F30B3006E30B400B5015430B6007530B7
:1020F000B7006530B800B9015730BA006530BB0091
:102100006430BC00BD015430BE006830BF00753083
:10211000C000C1014630C2007230C3006930C40043
:10212000C5015330C6006130C7007430C800C90112
:102130005330CA007530CB006E30CC00CD010F306B
:102140008600F03083128600831681130A128312F0
:10215000C5290A160A121D220A16013003179C000F
:102160000A12031323220A160A12302A0A168316A9
:10217000D001CF01CE010330D1002530D200043090
:10218000D3002430D400EC01CE30EB000A128312CD
:1021900044220A16D7010A12252B0A16570BD52BF3
:1021A0000A121D220A160A128A1500200A168A111E
:1021B00008308316D500D6010130D700D801D901E7
:1021C000DA01DB01DC01DD01DE01DF01E001E1011B
:1021D000E2010230E3000830E400E5010130E600EE
:1021E0001C30E700E8010130E9000C30EA008312FE
:1021F0005D0803179D000A1203131C240A167808B1
:102200008316DB0083125C0803179D000A12031378
:102210001C240A1678088316DA0083125B08031759
:102220009D000A1203131C240A1678088316DD0089
:1022300083125A0803179D000A1203131C240A165E
:1022400078088316E00083125E0803179D000A12C7
:1022500003131C240A1678088316DE0083125F0815
:1022600003179D000A1203131C240A16780883160C
:10227000E1008312600803179D000A1203131C2457
:102280000A1678088316D8000130831203179A00C3
:1022900008309B000A120313CE230A160A12B12239
:1022A0000A16F8080319CE2B340835020319CE2B71
:1022B00083166108EB005808EC006B08043C031916
:1022C0006D296B08063C03196D296B08093C03193D
:1022D0006D296B080B3C031D70291E30ED0072291F
:1022E0001F30ED006B08023C031D78291C30ED0007
:1022F0006B08023C031D8529EC08031985296C082D
:102300000339031D85291D30ED006D08F80078089C
:10231000E7005E0867020318B3296708DE00023091
:10232000831203179A0005309B000A120313CE2371
:102330000A1603179D019C019B01831603135E0877
:10234000831203179A000A12031364250A16013038
:1023500003179A0008309B000A120313CE230A16B3
:1023600008308316D5000A128312B1220A167808A3
:10237000D8000A12B1220A167808343C031DE1295C
:1023800003308316D5075508093C0318D329570B8A
:10239000CC290330D500CE290230D500D609560805
:1023A0000139013ED7005708831203179A0083169C
:1023B00003135508831203179B000A120313CE233D
:1023C0000A160A12B1220A167808313C031D9D2A0A
:1023D0008316570B282AD83055078400831300082A
:1023E000EB00A93055078400831300086B02031922
:1023F000FB290318282A01305502EB0057088312E5
:1024000003179A00831603136B08831203179B00AC
:102410000A120313CE230A16D830831655078400F8
:102420008313800AD8305507840083130008EB001B
:10243000831203179D019C019B01831603136B08F4
:10244000831203179A000A12031364250A168316CF
:102450005708023C031D9E2A5508033C031D602AB1
:102460005B086402031C602ADB0A02308312031734
:102470009A0001309B000A120313CE230A16023081
:1024800083165B02F700F70DF70DFC30F7057708B0
:10249000B23EF800FA010318FA0A7808EB007A084D
:1024A000EC0083120317B100831603136B08831229
:1024B0000317B0000A12031342250A169D2A831639
:1024C000D8305507840083130008EB000130550213
:1024D000E23E8400831300086B020319712A03187B
:1024E0009E2A01305502EB005708831203179A0009
:1024F000831603136B08831203179B000A1203133E
:10250000CE230A16D8308316550784008313800A19
:10251000D8305507840083130008EB00831203179B
:102520009D019C019B01831603136B088312031703
:102530009A000A12031364250A1683160A128312DC
:10254000B1220A167808313C031D822B8316570BE3
:10255000F92AD8305507840083130008EB00A9300E
:1025600055078400831300086B020319F92A031C22
:10257000F92AD8305507F800FA010318FA0A780842
:10258000EB007A08EC0001305502A93E8400831369
:102590000008ED006B08840083136C1883176D0826
:1025A000800001305502EB005708831203179A0090
:1025B000831603136B08831203179B000A1203137D
:1025C000CE230A16D83083165507840083130008DB
:1025D000EB00831203179D019C019B0183160313DB
:1025E0006B08831203179A000A12031364250A1654
:1025F00083165708023C031D832B5508033C031D1B
:10260000322B5B0864020318322B6308DB000230B4
:10261000831203179A0001309B000A120313CE2382
:102620000A16023083165B02F700F70DF70DFC3037
:10263000F7057708B23EF800FA010318FA0A78089D
:10264000EB007A08EC0083120317B1008316031322
:102650006B0883120317B0000A12031342250A16EF
:10266000822B8316D8305507840083130008EB00B3
:1026700001305502E23E8400831300086B02031907
:10268000832B031C832B01305502EB005708831268
:1026900003179A00831603136B08831203179B001A
:1026A0000A120313CE230A16D83083165507F800F2
:1026B000FA010318FA0A7808EB007A08EC000130F6
:1026C0005502E23E840083130008ED006B0884008D
:1026D00083136C1883176D088000D8305507840069
:1026E00083130008EB00831203179D019C019B01DB
:1026F000831603136B08831203179A000A1203133D
:1027000064250A1683160A128312B1220A16780863
:10271000333C031DCE2B83165A08EB000A1283129A
:10272000CC260A167808E30083165D08EB000A122F
:102730008312CC260A167808E20083166008EB00A4
:102740000A128312CC260A167808E10083165E0866
:10275000EB000A128312CC260A167808E5008316CD
:102760006108EB000A128312CC260A167808E600EC
:1027700083165B08EB000A128312CC260A1678082F
:10278000E4008316EC016130EB000A12831244224C
:102790000A16D7010A121D220A16D52B3408B500D5
:1027A000570BD32BD42BD52B4E295708023C031D96
:1027B000DE2B0A128A158B290A168A115708033C48
:1027C000031DE72B0A128A15402B0A168A110A12DA
:0C27D0008A1500200A168A11CB2863002D
:02400E00323F3F
:00000001FF
;PIC16F877A
;CRC=BC9E  CREATED="02-May-24 13:59"
